:100A5700312E74696D652020322E636C6F636B00D5
:100A6700332E74656D706572617475726500202030
:100A7700202020202020202020202020202000743B
:100A8700696D653A0020203A20203A202000636CE7
:100A97006F636B3A0054656D70657261747572654A
:020AA7003A0013
:080D6300060C00000000000A6C
:10045600120D4F7BFF7A0A79577D017F01120C5EE0
:100466007BFF7A0A79677D017F02120C5E20B06EEF
:100476007BFF7A0A79757D017F01120C5E7BFF7A1C
:100486000A79757D017F02120C5E7BFF7A0A7986F6
:100496007D017F01120C5E7BFF7A0A798C7D017FDC
:1004A60002120C5E1207F720B30280321208E1E551
:1004B60029FB7A00751A027D017F02120C9FE52A3C
:1004C600FB7A00751A027D047F02120C9FE52BFB56
:1004D6007A00751A027D077F02120C9F80C930B11F
:1004E600030205CE7BFF7A0A79757D017F01120C26
:1004F6005E7BFF7A0A79757D017F02120C5E7BFFB7
:100506007A0A79957D017F01120C5E7BFF7A0A7962
:100516008C7D017F02120C5E751A02AB0DAA0C7D52
:10052600017F02120C9F751A02AB0FAA0E7D047F83
:1005360002120C9F751A02AB11AA107D077F0212D8
:100546000C9FE50D450C700CE50F450E7006E51188
:100556004510603C751A02AB0DAA0C7D017F021294
:100566000C9F751A02AB0FAA0E7D047F02120C9F18
:10057600751A02AB11AA107D077F02120C9F120694
:10058600BA120BA230B3097FE87E03120D3A80B28D
:10059600E50D450C7032E50F450E702CE511451042
:1005A600702620B3028021751200751364D3E513FB
:1005B6009400E5126480948040E8B295D295E513E4
:1005C600151370E9151280E530B203020697120D75
:1005D600967BFF7A0A79757D017F01120C5E7BFF9F
:1005E6007A0A79757D017F02120C5E7BFF7A0A79A1
:1005F6009C7D017F01120C5E120D96120C0D8F0B65
:100606008E0A8D098C08E4FFFEFDFCAB0BAA0AA935
:1006160009A8081201A9501E7B2D7D017F02120D2B
:10062600ADAF0BAE0AAD09AC081202168F0B8E0ADF
:100636008D098C0880097B2B7D017F02120DADAFE1
:100646000BAE0AAD09AC08120265AB07AA06751A0D
:10065600037D027F02120C9F7B2E7D057F02120D09
:10066600AD7F007E407D1C7C46AB0BAA0AA909A87B
:1006760008120003120265E47B107A27F9F81203C8
:10068600B6751A047D067F02120C9F30B30302056D
:10069600FE30B3030204737BFF7A0A79577D017F2C
:1006A60001120C5E7BFF7A0A79677D017F02120CCC
:0406B6005E02047369
:060D8700C2A58F80D2A777
:080D8D007F027EEFDEFEDFFCB9
:010D9500223B
:0A0DA300C2A6120D87C2A7020D8D33
:100C8100CFCDCFCECCCE1203257C007D0A12032519
:040C9100ED2430FF1F
:0A0C9500D2A6120D87C2A7020D8D32
:100D2400AE07BE0104ED148006BE0209ED243F4463
:060D340080FF120DA32256
:100D4F007F38120DA37F0C120DA37F06120DA37F08
:040D5F0001020DA3DD
:0A0DAD00AC03120D24AF04020C95F4
:060C5E008B168A178918AD
:100C6400120D24E4FDAB16AA17A9188D8275830012
:0C0C74001202E6FF6006120C950D80E9EC
:010C80002251
:0C0BDA007F0AEA24FFFDE434FFFC7E00EB
:080BE6008E1B8F1C8C1D8D1E5F
:100BEE007F017E00E4FBEBC3951EE51D6480F87467
:0E0BFE008098500AAC1BAD1C1203130B80E84C
:010C0C0022C5
:040C9F008A188B190B
:100CA300120D24AA1AEAD39400400D120BDAAC18E1
:080CB300AD19120C811A80ED4D
:010CBB002216
:100AF700120D24C3EA64809480400B7F2B120C955F
:100B07008A248B25800E7F2D120C95C3E49BF52537
:100B1700E49AF524AA23EAD39400400D120BDAAC29
:090B270024AD25120C811A80EDA9
:010B300022A2
:040B31008A2F8B304C
:100B3500120D24AA31EAD3940040297F10120BDC50
:100B4500AC2FAD30CFCDCFCECCCE120325EF540F89
:100B5500FEC3940AEE5004243080022437FF120CA1
:040B6500951A80D18C
:010B69002269
:040B6A008A348B3509
:100B6E00120D24AA36EAD394004028EA24FFFDE4AD
:100B7E0034FFFC7F027E00120BE6AC34AD35CFCDD8
:100B8E00CFCECCCE120325EF54012430FF120C959C
:030B9E001A80D2E8
:010BA1002231
:090D6B000726130B100C3B3706A0
:050DB700C2B5C2B62226
:0609FA0025F0FDEC3EFCBF
:060A00008C148D15AB07FC
:100A0600D2B5E4FD74017E00A805088005C333CE87
:100A160033CED8F9FFEBF582EF558224FF92B4D29C
:100A2600B6C2B60DBD08DDE4FD74017E00A805085A
:100A36008005C333CE33CED8F9FFE5145EFEE51547
:100A46005F4E24FF92B4D2B6C2B60DBD08DBC2B566
:010A5600227D
:020AA900AD0797
:100AAB00E4F9430501D2B5FB74017E00A80308806D
:100ABB0005C333CE33CED8F9FFEDF582EF55822443
:100ACB00FF92B4C2B6D2B60BBB08DDE4FBD2B6C202
:100ADB00B630B40D7401A803088002C333D8FC42AE
:0B0AEB00010BBB08E8C2B5C2B4AF01AC
:010AF60022DD
:1007F700E4FDFC7F8E120A00E52675F00A8475F089
:1008070010A4FFAEF0E52675F00A84EF7F8C12097D
:10081700FAE52775F00A8475F010A4FFAEF0E52716
:1008270075F00A847C00EF7F881209FAE52875F0D5
:100837000A8475F010A4FFAEF0E52875F00A847CF1
:1008470000EF25F0FDEC3EFC7F86120A00E52975D6
:10085700F00A8475F010A4FFAEF0E52975F00A845C
:100867007C00EF25F0FDEC3EFC7F84120A00E52AB0
:1008770075F00A8475F010A4FFAEF0E52A75F00A4A
:10088700847C00EF25F0FDEC3EFC7F82120A00E538
:100897002B75F00A8475F010A4FFAEF0E52B75F008
:1008A7000A847C00EF25F0FDEC3EFC7F80120A00F5
:1008B700E52C75F00A8475F010A4FFAEF0E52C75F1
:1008C700F00A847C00EF25F0FDEC3EFC7F8A120ADB
:0A08D700007D807C007F8E020A0085
:1008E1007F8C120AA9EFC4540F75F00AA4FEEF54CD
:1008F1000F2EF5267F88120AA9EFC4540F75F00A4E
:10090100A4FEEF540F2EF5277F86120AA9EFC454D7
:100911000F75F00AA4FEEF540F2EF5287F84120AFA
:10092100A9EFC4540F75F00AA4FEEF540F2EF52958
:100931007F82120AA9EFC4540F75F00AA4FEEF5486
:100941000F2EF52A7F80120AA9EFC4540F75F00A01
:10095100A4FEEF540F2EF52B7F8A120AA9EFC4547F
:0C0961000F75F00AA4FEEF540F2EF52CC9
:01096D002267
:100D3A00EF1FAC0670011E4C600A7D027CEFDCFEE0
:040D4A00DDFC80EC60
:010D4E002282
:0D0D9600120CD97FCC120CF37F44020CF339
:100C0D00120CD97FCC120CF37FBE120CF3120CBC5C
:100C1D008F14120CBCEFFEE514FFFDAC06EC1202B6
:0B0C2D002CE4FBFA7980784112010CE6
:010C38002299
:100CD900D2B7C2B77FF7DFFED2B77F20DFFEA2B758
:090CE900E433FE7FF7DFFEAF06E5
:010CF20022DF
:100D7500C2B77E04DEFEEF24FF92B77E18DEFED2F8
:010D8500B7B6
:010D8600224A
:100D0C00C2B77F02DFFED2B77F02DFFEA2B7E433A9
:070D1C00FE7F18DFFEAF06A9
:010D230022AD
:020CF300AD074B
:100CF500E4FC7401A804088002C333D8FC5DFF122C
:060D05000D750CBC08ECAA
:010D0B0022C5
:100CBC00E4FDFC120D0CEF600D7401A80408800219
:0C0CCC00C333D8FC42050CBC08E9AF059E
:010CD80022F9
:100C390073657420686F757200736574206D696ED1
:100C4900740073657420736563640020202020207C
:050C5900202020200016
:100BA200E51145107029E50F150F7002150E75102D
:100BB2000075113CE50F450E701DE50D450C6017E3
:100BC200E50D150D7002150C750E00750F3C22E532
:080BD20011151170021510222B
:1006BA00E4F514F5153090030207F67FF47E011273
:1006CA000D3A751A02AB0DAA0C7D017F02120C9F1E
:1006DA00751A02AB0FAA0E7D047F02120C9F751ABF
:1006EA0002AB11AA107D077F02120C9F20900F0502
:1006FA0015E515700205147FF47E01120D3AE51511
:10070A00640345147004F514F515E5154514701BBA
:10071A002091187BFF7A0C79397D097F01120C5ED2
:10072A00050DE50D7068050C0207DCE5154514702A
:10073A001B2092187BFF7A0C79397D097F01120CF4
:10074A005EE50D150D7002150C0207DCE515640156
:10075A004514701A2091177BFF7A0C79427D097F24
:10076A0001120C5E050FE50F7002050E8064E51597
:10077A0064014514701A2092177BFF7A0C79427D26
:10078A00097F01120C5EE50F150F7002150E8042EB
:10079A00E51564024514701A2091177BFF7A0C79CB
:1007AA004B7D097F01120C5E0511E51170020510DF
:1007BA008020E51564024514701F20921C7BFF7A85
:1007CA000C794B7D097F01120C5EE511151170023F
:1007DA0015107FF47E01120D3A3093030206CC7B8A
:0C07EA00FF7A0C79547D097F01120C5E2F
:0107F60022E0
:10000300EC4D6011E8497017ED33EC3304600DE4F7
:10001300FCFFFEFD22E933E8330470F80202D1123B
:10002300029C58046009E4CC24815006285009023C
:1000330002DB2840030202D8C0E0EB4A7044B980D7
:1000430006D0E0FB0202C7EF4E701CBD8008EBFF39
:10005300EAFEE9FD80EBE98DF0A4FEE5F00200EC99
:10006300E9CDF9EAFEEBFFEF89F0A4FCE5F0CE89D8
:10007300F0A42EFFE435F0CD89F0A42DFEE435F095
:100083008067EF4E7005BD80D780C3EF8BF0A4ACC3
:10009300F0EE8BF0A42CFCE435F0F8EF8AF0A42CFE
:1000A300E5F038FCE433CB8DF0A42CFCE5F03BF811
:1000B300EE8AF0A42CFCE5F038F8E433CF89F0A401
:1000C3002CFCE5F038CF3400CE89F0A42FFFE5F007
:1000D3003EFEE433C98DF0A42EFEE5F039CD8AF05F
:1000E300A42FFFE5F03EFEE43DFD33D0E0FB5007D7
:1000F3000BBB000F0202DBEC2CFCEF33FFEE33FEF5
:06010300ED33FD0202B322
:100109000202DBEC5D046005E8590470030202D1C8
:1001190012029C580460F6EC4860F2EC7004FDFE93
:10012900FF22C860DB2481C85009C39860025006C9
:100139000202D89850CAF582E9294B4A7005AB8268
:100149000202C775F0007C1A7880C3EF9BEE9AED26
:1001590099400DC3EF9BFFEE9AFEED99FDE842F041
:10016900DC23ACF0D0E0FFD0E0FED0E0FDAB822094
:10017900E7101BEB60BAEC2CFCEF33FFEE33FEED1E
:1001890033FD0202B3E803F830E705C0F075F0006B
:10019900EF2FFFEE33FEED33FD40B830E7C280AA02
:1001A90074F8CC6480CCC86480C8F582046043C309
:1001B900EB9FF5F0EA9E42F0E99D42F0E89C45F09C
:1001C90060305018E5825FFFE582F42B5582FB50C1
:1001D900210ABA001D09B90019088016E5825BFBDE
:1001E900E582F42F5582FF50090EBE00050DBD00B2
:1001F900010CC3EB9FF5F0EA9E42F0E99D42F0E85D
:0D0209009C45F06007CC4820E701B3EC22D3
:10021600ED33EC33600A047003BD8004ECB2E7FCF6
:0102260022B5
:1002270075F020800E75F010800575F0087D007E52
:10023700007F003392D530D503120448EC334010C9
:10024700EF33FFEE33FEED33FDEC33FCD5F0ED225B
:0E025700E5F0247EA2D513CC92E7CDCEFF2297
:10026500EDD2E7CD33EC3392D524814006E4FFFE91
:10027500FDFC22FCE4CFCECDCC24E0501174FF80F0
:10028500EDC3CC13CCCD13CDCE13CECF13CF04708D
:07029500F030D5DE02044841
:10029C00E9D2E7C933E833F892D5EDD2E7CD33ECA8
:0702AC0033FC5002B2D52221
:1002B300EC30E7100FBF000C0EBE00080DBD0004AC
:1002C3000BEB6014A2D5EB13FCED92E7FD2274FF58
:1002D300FCFDFEFF22E480F8A2D574FF13FC7D80B1
:0302E300E480EFC5
:0300000002096E84
:0C096E00787FE4F6D8FD7581360209B5EB
:1002E600BB010CE58229F582E5833AF583E02250CD
:1002F60006E92582F8E622BBFE06E92582F8E22217
:0D030600E58229F582E5833AF583E4932230
:10031300EF8DF0A4A8F0CF8CF0A428CE8DF0A42EFE
:02032300FE22B8
:10032500BC000BBE0029EF8DF084FFADF022E4CCBC
:10033500F875F008EF2FFFEE33FEEC33FCEE9DEC85
:10034500984005FCEE9DFE0FD5F0E9E4CEFD22EDCB
:10035500F8F5F0EE8420D21CFEADF075F008EF2F15
:10036500FFED33FD4007985006D5F0F222C398FD06
:050375000FD5F0EA22A3
:10037A0075F008758200EF2FFFEE33FECD33CDCC3A
:10038A0033CCC58233C5829BED9AEC99E5829840BD
:10039A000CF582EE9BFEED9AFDEC99FC0FD5F0D69A
:1003AA00E4CEFBE4CDFAE4CCF9A88222B800C1B9C4
:1003BA000059BA002DEC8BF084CFCECDFCE5F0CB02
:1003CA00F97818EF2FFFEE33FEED33FDEC33FCEB3B
:1003DA0033FB10D703994004EB99FB0FD8E5E4F9F6
:1003EA00FA227818EF2FFFEE33FEED33FDEC33FCE3
:1003FA00C933C910D7059BE99A4007EC9BFCE99AD7
:10040A00F90FD8E0E4C9FAE4CCFB2275F010EF2F1B
:10041A00FFEE33FEED33FDCC33CCC833C810D7071B
:10042A009BEC9AE899400AED9BFDEC9AFCE899F856
:0E043A000FD5F0DAE4CDFBE4CCFAE4C8F922E9
:0E044800C3E49FFFE49EFEE49DFDE49CFC22C5
:10097A00020456E493A3F8E493A34003F68001F239
:10098A0008DFF48029E493A3F85407240CC8C3337E
:10099A00C4540F4420C8834004F456800146F6DF4D
:1009AA00E4800B0102040810204080900D63E47E6D
:1009BA00019360BCA3FF543F30E509541FFEE49342
:1009CA00A360010ECF54C025E060A840B8E493A309
:1009DA00FAE493A3F8E493A3C8C582C8CAC583CA34
:1009EA00F0A3C8C582C8CAC583CADFE9DEE780BEEC
:010D7400007E
:00000001FF
